{
  "_format": "hh-sol-artifact-1",
  "contractName": "LockedLiquidityEvent",
  "sourceName": "contracts/LockedLiquidityEvent.sol",
  "abi": [
    {
      "inputs": [
        {
          "internalType": "address",
          "name": "_router",
          "type": "address"
        },
        {
          "internalType": "address",
          "name": "_factory",
          "type": "address"
        },
        {
          "internalType": "address",
          "name": "_tdao",
          "type": "address"
        },
        {
          "internalType": "address",
          "name": "_tokenB",
          "type": "address"
        },
        {
          "internalType": "address",
          "name": "_nft",
          "type": "address"
        }
      ],
      "stateMutability": "nonpayable",
      "type": "constructor"
    },
    {
      "anonymous": false,
      "inputs": [
        {
          "indexed": true,
          "internalType": "address",
          "name": "account",
          "type": "address"
        }
      ],
      "name": "DivinityClaimed",
      "type": "event"
    },
    {
      "anonymous": false,
      "inputs": [
        {
          "indexed": true,
          "internalType": "address",
          "name": "account",
          "type": "address"
        },
        {
          "indexed": false,
          "internalType": "uint256",
          "name": "value",
          "type": "uint256"
        }
      ],
      "name": "LiquidityAddition",
      "type": "event"
    },
    {
      "anonymous": false,
      "inputs": [
        {
          "indexed": true,
          "internalType": "address",
          "name": "account",
          "type": "address"
        },
        {
          "indexed": false,
          "internalType": "uint32[7]",
          "name": "amount",
          "type": "uint32[7]"
        }
      ],
      "name": "TransferredNFT",
      "type": "event"
    },
    {
      "anonymous": false,
      "inputs": [
        {
          "indexed": true,
          "internalType": "address",
          "name": "account",
          "type": "address"
        },
        {
          "indexed": false,
          "internalType": "uint256",
          "name": "value",
          "type": "uint256"
        }
      ],
      "name": "TrigClaimed",
      "type": "event"
    },
    {
      "inputs": [],
      "name": "END_TIME",
      "outputs": [
        {
          "internalType": "uint256",
          "name": "",
          "type": "uint256"
        }
      ],
      "stateMutability": "view",
      "type": "function"
    },
    {
      "inputs": [],
      "name": "GRACE_PERIOD",
      "outputs": [
        {
          "internalType": "uint256",
          "name": "",
          "type": "uint256"
        }
      ],
      "stateMutability": "view",
      "type": "function"
    },
    {
      "inputs": [],
      "name": "MIN_PRICE_DIVINITY_NFT",
      "outputs": [
        {
          "internalType": "uint256",
          "name": "",
          "type": "uint256"
        }
      ],
      "stateMutability": "view",
      "type": "function"
    },
    {
      "inputs": [
        {
          "internalType": "uint256",
          "name": "amount",
          "type": "uint256"
        }
      ],
      "name": "addLiquidity",
      "outputs": [],
      "stateMutability": "nonpayable",
      "type": "function"
    },
    {
      "inputs": [
        {
          "internalType": "address",
          "name": "account",
          "type": "address"
        },
        {
          "internalType": "uint256",
          "name": "amount",
          "type": "uint256"
        }
      ],
      "name": "addLiquidityFor",
      "outputs": [],
      "stateMutability": "nonpayable",
      "type": "function"
    },
    {
      "inputs": [],
      "name": "burnAddress",
      "outputs": [
        {
          "internalType": "address",
          "name": "",
          "type": "address"
        }
      ],
      "stateMutability": "view",
      "type": "function"
    },
    {
      "inputs": [
        {
          "internalType": "address",
          "name": "erc20",
          "type": "address"
        },
        {
          "internalType": "address",
          "name": "recipient",
          "type": "address"
        }
      ],
      "name": "claimERC20",
      "outputs": [],
      "stateMutability": "nonpayable",
      "type": "function"
    },
    {
      "inputs": [],
      "name": "claimTreasuryNFTRewards",
      "outputs": [],
      "stateMutability": "nonpayable",
      "type": "function"
    },
    {
      "inputs": [],
      "name": "claimTrig",
      "outputs": [],
      "stateMutability": "nonpayable",
      "type": "function"
    },
    {
      "inputs": [
        {
          "internalType": "address",
          "name": "",
          "type": "address"
        }
      ],
      "name": "contributed",
      "outputs": [
        {
          "internalType": "uint256",
          "name": "",
          "type": "uint256"
        }
      ],
      "stateMutability": "view",
      "type": "function"
    },
    {
      "inputs": [],
      "name": "eventCompleted",
      "outputs": [
        {
          "internalType": "bool",
          "name": "",
          "type": "bool"
        }
      ],
      "stateMutability": "view",
      "type": "function"
    },
    {
      "inputs": [],
      "name": "highestDeposit",
      "outputs": [
        {
          "internalType": "address",
          "name": "account",
          "type": "address"
        },
        {
          "internalType": "uint256",
          "name": "amount",
          "type": "uint256"
        }
      ],
      "stateMutability": "view",
      "type": "function"
    },
    {
      "inputs": [],
      "name": "lockLiquidity",
      "outputs": [],
      "stateMutability": "nonpayable",
      "type": "function"
    },
    {
      "inputs": [],
      "name": "nft",
      "outputs": [
        {
          "internalType": "address",
          "name": "",
          "type": "address"
        }
      ],
      "stateMutability": "view",
      "type": "function"
    },
    {
      "inputs": [
        {
          "internalType": "uint256",
          "name": "",
          "type": "uint256"
        }
      ],
      "name": "nftAllocation",
      "outputs": [
        {
          "internalType": "uint32",
          "name": "",
          "type": "uint32"
        }
      ],
      "stateMutability": "view",
      "type": "function"
    },
    {
      "inputs": [
        {
          "internalType": "uint256",
          "name": "",
          "type": "uint256"
        }
      ],
      "name": "nftMin",
      "outputs": [
        {
          "internalType": "uint32",
          "name": "",
          "type": "uint32"
        }
      ],
      "stateMutability": "view",
      "type": "function"
    },
    {
      "inputs": [
        {
          "internalType": "uint256",
          "name": "",
          "type": "uint256"
        }
      ],
      "name": "nftSupply",
      "outputs": [
        {
          "internalType": "uint32",
          "name": "",
          "type": "uint32"
        }
      ],
      "stateMutability": "view",
      "type": "function"
    },
    {
      "inputs": [
        {
          "internalType": "uint256",
          "name": "",
          "type": "uint256"
        }
      ],
      "name": "nftTreasuryIndex",
      "outputs": [
        {
          "internalType": "uint32",
          "name": "",
          "type": "uint32"
        }
      ],
      "stateMutability": "view",
      "type": "function"
    },
    {
      "inputs": [
        {
          "internalType": "address",
          "name": "",
          "type": "address"
        },
        {
          "internalType": "address",
          "name": "",
          "type": "address"
        },
        {
          "internalType": "uint256[]",
          "name": "",
          "type": "uint256[]"
        },
        {
          "internalType": "uint256[]",
          "name": "",
          "type": "uint256[]"
        },
        {
          "internalType": "bytes",
          "name": "",
          "type": "bytes"
        }
      ],
      "name": "onERC1155BatchReceived",
      "outputs": [
        {
          "internalType": "bytes4",
          "name": "",
          "type": "bytes4"
        }
      ],
      "stateMutability": "nonpayable",
      "type": "function"
    },
    {
      "inputs": [
        {
          "internalType": "address",
          "name": "",
          "type": "address"
        },
        {
          "internalType": "address",
          "name": "",
          "type": "address"
        },
        {
          "internalType": "uint256",
          "name": "",
          "type": "uint256"
        },
        {
          "internalType": "uint256",
          "name": "",
          "type": "uint256"
        },
        {
          "internalType": "bytes",
          "name": "",
          "type": "bytes"
        }
      ],
      "name": "onERC1155Received",
      "outputs": [
        {
          "internalType": "bytes4",
          "name": "",
          "type": "bytes4"
        }
      ],
      "stateMutability": "nonpayable",
      "type": "function"
    },
    {
      "inputs": [],
      "name": "ongoing",
      "outputs": [
        {
          "internalType": "bool",
          "name": "",
          "type": "bool"
        }
      ],
      "stateMutability": "view",
      "type": "function"
    },
    {
      "inputs": [],
      "name": "startTradingTime",
      "outputs": [
        {
          "internalType": "uint256",
          "name": "",
          "type": "uint256"
        }
      ],
      "stateMutability": "view",
      "type": "function"
    },
    {
      "inputs": [
        {
          "internalType": "bytes4",
          "name": "interfaceId",
          "type": "bytes4"
        }
      ],
      "name": "supportsInterface",
      "outputs": [
        {
          "internalType": "bool",
          "name": "",
          "type": "bool"
        }
      ],
      "stateMutability": "view",
      "type": "function"
    },
    {
      "inputs": [],
      "name": "tdao",
      "outputs": [
        {
          "internalType": "address",
          "name": "",
          "type": "address"
        }
      ],
      "stateMutability": "view",
      "type": "function"
    },
    {
      "inputs": [],
      "name": "timeRemaining",
      "outputs": [
        {
          "internalType": "uint256",
          "name": "remaining",
          "type": "uint256"
        }
      ],
      "stateMutability": "view",
      "type": "function"
    },
    {
      "inputs": [],
      "name": "tokenB",
      "outputs": [
        {
          "internalType": "address",
          "name": "",
          "type": "address"
        }
      ],
      "stateMutability": "view",
      "type": "function"
    },
    {
      "inputs": [],
      "name": "tokenUniswapPair",
      "outputs": [
        {
          "internalType": "address",
          "name": "",
          "type": "address"
        }
      ],
      "stateMutability": "view",
      "type": "function"
    },
    {
      "inputs": [],
      "name": "totalContributed",
      "outputs": [
        {
          "internalType": "uint256",
          "name": "",
          "type": "uint256"
        }
      ],
      "stateMutability": "view",
      "type": "function"
    },
    {
      "inputs": [],
      "name": "trig",
      "outputs": [
        {
          "internalType": "address",
          "name": "",
          "type": "address"
        }
      ],
      "stateMutability": "view",
      "type": "function"
    },
    {
      "inputs": [],
      "name": "trigTokensPerUnit",
      "outputs": [
        {
          "internalType": "uint256",
          "name": "",
          "type": "uint256"
        }
      ],
      "stateMutability": "view",
      "type": "function"
    },
    {
      "inputs": [],
      "name": "uniswapFactory",
      "outputs": [
        {
          "internalType": "contract IUniswapV2Factory",
          "name": "",
          "type": "address"
        }
      ],
      "stateMutability": "view",
      "type": "function"
    },
    {
      "inputs": [],
      "name": "uniswapRouterV2",
      "outputs": [
        {
          "internalType": "contract IUniswapV2Router02",
          "name": "",
          "type": "address"
        }
      ],
      "stateMutability": "view",
      "type": "function"
    }
  ],
  "bytecode": "0x608060405261dead600d60006101000a81548173ffffffffffffffffffffffffffffffffffffffff021916908373ffffffffffffffffffffffffffffffffffffffff1602179055506040518060e00160405280600a60ff168152602001600860ff168152602001600660ff168152602001600560ff168152602001600460ff168152602001600260ff168152602001600160ff16815250600f906007620000a892919062000846565b506040518060e00160405280600a60ff168152602001600860ff168152602001600660ff168152602001600560ff168152602001600460ff168152602001600260ff168152602001600160ff1681525060109060076200010a92919062000846565b506040518060e001604052806101f462ffffff1681526020016107d062ffffff16815260200161138862ffffff16815260200161271062ffffff168152602001614e2062ffffff16815260200161c35062ffffff168152602001620186a062ffffff16815250601190600762000182929190620008fa565b503480156200019057600080fd5b506040516200615738038062006157833981810160405260a0811015620001b657600080fd5b810190808051906020019092919080519060200190929190805190602001909291908051906020019092919080519060200190929190505050620002076301ffc9a760e01b6200051560201b60201c565b6200022863bc197c8160e01b63f23a6e6160e01b186200051560201b60201c565b82600860006101000a81548173ffffffffffffffffffffffffffffffffffffffff021916908373ffffffffffffffffffffffffffffffffffffffff16021790555081600960006101000a81548173ffffffffffffffffffffffffffffffffffffffff021916908373ffffffffffffffffffffffffffffffffffffffff16021790555080600a60006101000a81548173ffffffffffffffffffffffffffffffffffffffff021916908373ffffffffffffffffffffffffffffffffffffffff1602179055506200030b610e10635fd6ab006200061e60201b620020b31790919060201c565b60058190555084600160006101000a81548173ffffffffffffffffffffffffffffffffffffffff021916908373ffffffffffffffffffffffffffffffffffffffff16021790555083600260006101000a81548173ffffffffffffffffffffffffffffffffffffffff021916908373ffffffffffffffffffffffffffffffffffffffff160217905550620003e9600860009054906101000a900473ffffffffffffffffffffffffffffffffffffffff16600960009054906101000a900473ffffffffffffffffffffffffffffffffffffffff16620006a760201b60201c565b600c60006101000a81548173ffffffffffffffffffffffffffffffffffffffff021916908373ffffffffffffffffffffffffffffffffffffffff1602179055506040516200043790620009b0565b8080602001806020018381038352600e8152602001807f436f6e7472696275746520526967000000000000000000000000000000000000815250602001838103825260048152602001807f545249470000000000000000000000000000000000000000000000000000000081525060200192505050604051809103906000f080158015620004c9573d6000803e3d6000fd5b50600b60006101000a81548173ffffffffffffffffffffffffffffffffffffffff021916908373ffffffffffffffffffffffffffffffffffffffff1602179055505050505050620009eb565b63ffffffff60e01b817bffffffffffffffffffffffffffffffffffffffffffffffffffffffff19161415620005b2576040517f08c379a000000000000000000000000000000000000000000000000000000000815260040180806020018281038252601c8152602001807f4552433136353a20696e76616c696420696e746572666163652069640000000081525060200191505060405180910390fd5b6001600080837bffffffffffffffffffffffffffffffffffffffffffffffffffffffff19167bffffffffffffffffffffffffffffffffffffffffffffffffffffffff1916815260200190815260200160002060006101000a81548160ff02191690831515021790555050565b6000808284019050838110156200069d576040517f08c379a000000000000000000000000000000000000000000000000000000000815260040180806020018281038252601b8152602001807f536166654d6174683a206164646974696f6e206f766572666c6f77000000000081525060200191505060405180910390fd5b8091505092915050565b60008073ffffffffffffffffffffffffffffffffffffffff16600c60009054906101000a900473ffffffffffffffffffffffffffffffffffffffff1673ffffffffffffffffffffffffffffffffffffffff161462000751576040517f08c379a0000000000000000000000000000000000000000000000000000000008152600401808060200182810382526023815260200180620061346023913960400191505060405180910390fd5b6000600260009054906101000a900473ffffffffffffffffffffffffffffffffffffffff1673ffffffffffffffffffffffffffffffffffffffff1663c9c6539685856040518363ffffffff1660e01b8152600401808373ffffffffffffffffffffffffffffffffffffffff1681526020018273ffffffffffffffffffffffffffffffffffffffff16815260200192505050602060405180830381600087803b158015620007fd57600080fd5b505af115801562000812573d6000803e3d6000fd5b505050506040513d60208110156200082957600080fd5b810190808051906020019092919050505090508091505092915050565b82805482825590600052602060002090600701600890048101928215620008e75791602002820160005b83821115620008b357835183826101000a81548163ffffffff021916908360ff160217905550926020019260040160208160030104928301926001030262000870565b8015620008e55782816101000a81549063ffffffff0219169055600401602081600301049283019260010302620008b3565b505b509050620008f69190620009be565b5090565b828054828255906000526020600020906007016008900481019282156200099d5791602002820160005b838211156200096957835183826101000a81548163ffffffff021916908362ffffff160217905550926020019260040160208160030104928301926001030262000924565b80156200099b5782816101000a81549063ffffffff021916905560040160208160030104928301926001030262000969565b505b509050620009ac9190620009be565b5090565b6116668062004ace83390190565b5b80821115620009e757600081816101000a81549063ffffffff021916905550600101620009bf565b5090565b6140d380620009fb6000396000f3fe608060405234801561001057600080fd5b50600436106101ef5760003560e01c806377425faf1161010f578063bb2f7199116100a2578063d5cdc13f11610071578063d5cdc13f14610970578063e3cfef60146109a4578063efa1f98a146109c2578063f23a6e6114610a10576101ef565b8063bb2f7199146106d2578063bc197c81146106dc578063c09ffd3c14610932578063c1a287e214610952576101ef565b80638bdb2afa116100de5780638bdb2afa146105f4578063995c5e9d14610628578063a5023e7c14610680578063a7435497146106c8576101ef565b806377425faf146104e25780637cd281981461050057806380b60721146105485780638848ac0314610590576101ef565b806351c6590a116101875780636b6a4115116101565780636b6a41151461046857806370d5ae051461048657806372fa1fc5146104ba57806376f1a401146104c4576101ef565b806351c6590a1461039e57806353263599146103cc578063596fa9e3146104005780635f64b55b14610434576101ef565b80632f8977a8116101c35780632f8977a8146102d057806337ba682d1461031857806347ccca02146103365780634d3324571461036a576101ef565b80621d918f146101f457806301ffc9a71461022f578063023f4147146102925780631ff11f54146102b0575b600080fd5b6101fc610b52565b604051808373ffffffffffffffffffffffffffffffffffffffff1681526020018281526020019250505060405180910390f35b61027a6004803603602081101561024557600080fd5b8101908080357bffffffffffffffffffffffffffffffffffffffffffffffffffffffff19169060200190929190505050610b84565b60405180821515815260200191505060405180910390f35b61029a610beb565b6040518082815260200191505060405180910390f35b6102b8610bf1565b60405180821515815260200191505060405180910390f35b6102fc600480360360208110156102e657600080fd5b8101908080359060200190929190505050610cad565b604051808263ffffffff16815260200191505060405180910390f35b610320610ce4565b6040518082815260200191505060405180910390f35b61033e610cec565b604051808273ffffffffffffffffffffffffffffffffffffffff16815260200191505060405180910390f35b610372610d12565b604051808273ffffffffffffffffffffffffffffffffffffffff16815260200191505060405180910390f35b6103ca600480360360208110156103b457600080fd5b8101908080359060200190929190505050610d38565b005b6103d4610dae565b604051808273ffffffffffffffffffffffffffffffffffffffff16815260200191505060405180910390f35b610408610dd4565b604051808273ffffffffffffffffffffffffffffffffffffffff16815260200191505060405180910390f35b61043c610dfa565b604051808273ffffffffffffffffffffffffffffffffffffffff16815260200191505060405180910390f35b610470610e20565b6040518082815260200191505060405180910390f35b61048e610e2e565b604051808273ffffffffffffffffffffffffffffffffffffffff16815260200191505060405180910390f35b6104c2610e54565b005b6104cc6113bb565b6040518082815260200191505060405180910390f35b6104ea6113c1565b6040518082815260200191505060405180910390f35b61052c6004803603602081101561051657600080fd5b81019080803590602001909291905050506113c7565b604051808263ffffffff16815260200191505060405180910390f35b6105746004803603602081101561055e57600080fd5b81019080803590602001909291905050506113fe565b604051808263ffffffff16815260200191505060405180910390f35b6105f2600480360360408110156105a657600080fd5b81019080803573ffffffffffffffffffffffffffffffffffffffff169060200190929190803573ffffffffffffffffffffffffffffffffffffffff169060200190929190505050611435565b005b6105fc61177e565b604051808273ffffffffffffffffffffffffffffffffffffffff16815260200191505060405180910390f35b61066a6004803603602081101561063e57600080fd5b81019080803573ffffffffffffffffffffffffffffffffffffffff1690602001909291905050506117a4565b6040518082815260200191505060405180910390f35b6106ac6004803603602081101561069657600080fd5b81019080803590602001909291905050506117bc565b604051808263ffffffff16815260200191505060405180910390f35b6106d06117f3565b005b6106da611a4f565b005b6108fd600480360360a08110156106f257600080fd5b81019080803573ffffffffffffffffffffffffffffffffffffffff169060200190929190803573ffffffffffffffffffffffffffffffffffffffff1690602001909291908035906020019064010000000081111561074f57600080fd5b82018360208201111561076157600080fd5b8035906020019184602083028401116401000000008311171561078357600080fd5b919080806020026020016040519081016040528093929190818152602001838360200280828437600081840152601f19601f820116905080830192505050505050509192919290803590602001906401000000008111156107e357600080fd5b8201836020820111156107f557600080fd5b8035906020019184602083028401116401000000008311171561081757600080fd5b919080806020026020016040519081016040528093929190818152602001838360200280828437600081840152601f19601f8201169050808301925050505050505091929192908035906020019064010000000081111561087757600080fd5b82018360208201111561088957600080fd5b803590602001918460018302840111640100000000831117156108ab57600080fd5b91908080601f016020809104026020016040519081016040528093929190818152602001838380828437600081840152601f19601f820116905080830192505050505050509192919290505050611fa6565b60405180827bffffffffffffffffffffffffffffffffffffffffffffffffffffffff1916815260200191505060405180910390f35b61093a611fbb565b60405180821515815260200191505060405180910390f35b61095a611fce565b6040518082815260200191505060405180910390f35b610978611fd4565b604051808273ffffffffffffffffffffffffffffffffffffffff16815260200191505060405180910390f35b6109ac611ffa565b6040518082815260200191505060405180910390f35b610a0e600480360360408110156109d857600080fd5b81019080803573ffffffffffffffffffffffffffffffffffffffff16906020019092919080359060200190929190505050612026565b005b610b1d600480360360a0811015610a2657600080fd5b81019080803573ffffffffffffffffffffffffffffffffffffffff169060200190929190803573ffffffffffffffffffffffffffffffffffffffff169060200190929190803590602001909291908035906020019092919080359060200190640100000000811115610a9757600080fd5b820183602082011115610aa957600080fd5b80359060200191846001830284011164010000000083111715610acb57600080fd5b91908080601f016020809104026020016040519081016040528093929190818152602001838380828437600081840152601f19601f82011690508083019250505050505050919291929050505061209e565b60405180827bffffffffffffffffffffffffffffffffffffffffffffffffffffffff1916815260200191505060405180910390f35b60038060000160009054906101000a900473ffffffffffffffffffffffffffffffffffffffff16908060010154905082565b6000806000837bffffffffffffffffffffffffffffffffffffffffffffffffffffffff19167bffffffffffffffffffffffffffffffffffffffffffffffffffffffff1916815260200190815260200160002060009054906101000a900460ff169050919050565b60065481565b600042635fd6ab00118015610ca85750600860009054906101000a900473ffffffffffffffffffffffffffffffffffffffff1673ffffffffffffffffffffffffffffffffffffffff16633c62897a6040518163ffffffff1660e01b815260040160206040518083038186803b158015610c6957600080fd5b505afa158015610c7d573d6000803e3d6000fd5b505050506040513d6020811015610c9357600080fd5b81019080805190602001909291905050504210155b905090565b600e8181548110610cba57fe5b9060005260206000209060089182820401919006600402915054906101000a900463ffffffff1681565b635fd6ab0081565b600a60009054906101000a900473ffffffffffffffffffffffffffffffffffffffff1681565b600c60009054906101000a900473ffffffffffffffffffffffffffffffffffffffff1681565b610d42338261213b565b610d97576040517f08c379a000000000000000000000000000000000000000000000000000000000815260040180806020018281038252602e815260200180613e5e602e913960400191505060405180910390fd5b610da1338261234a565b610dab33826123c0565b50565b600b60009054906101000a900473ffffffffffffffffffffffffffffffffffffffff1681565b600160009054906101000a900473ffffffffffffffffffffffffffffffffffffffff1681565b600960009054906101000a900473ffffffffffffffffffffffffffffffffffffffff1681565b690a968163f0a57b40000081565b600d60009054906101000a900473ffffffffffffffffffffffffffffffffffffffff1681565b600d60149054906101000a900460ff16610eb9576040517f08c379a000000000000000000000000000000000000000000000000000000000815260040180806020018281038252602981526020018061404b6029913960400191505060405180910390fd5b6000600e805490501415610f18576040517f08c379a0000000000000000000000000000000000000000000000000000000008152600401808060200182810382526034815260200180613ddd6034913960400191505060405180910390fd5b6000600860009054906101000a900473ffffffffffffffffffffffffffffffffffffffff1673ffffffffffffffffffffffffffffffffffffffff16636052970c6040518163ffffffff1660e01b815260040160206040518083038186803b158015610f8257600080fd5b505afa158015610f96573d6000803e3d6000fd5b505050506040513d6020811015610fac57600080fd5b810190808051906020019092919050505073ffffffffffffffffffffffffffffffffffffffff1663063b47f86040518163ffffffff1660e01b815260040160206040518083038186803b15801561100257600080fd5b505afa158015611016573d6000803e3d6000fd5b505050506040513d602081101561102c57600080fd5b810190808051906020019092919050505090506000600860009054906101000a900473ffffffffffffffffffffffffffffffffffffffff1673ffffffffffffffffffffffffffffffffffffffff16636052970c6040518163ffffffff1660e01b815260040160206040518083038186803b1580156110a957600080fd5b505afa1580156110bd573d6000803e3d6000fd5b505050506040513d60208110156110d357600080fd5b810190808051906020019092919050505073ffffffffffffffffffffffffffffffffffffffff1663af8b1c6f6040518163ffffffff1660e01b815260040160206040518083038186803b15801561112957600080fd5b505afa15801561113d573d6000803e3d6000fd5b505050506040513d602081101561115357600080fd5b8101908080519060200190929190505050905060005b600e805490508160ff161015611235578273ffffffffffffffffffffffffffffffffffffffff1663441a3e70600e8360ff16815481106111a557fe5b90600052602060002090600891828204019190066004029054906101000a900463ffffffff1660006040518363ffffffff1660e01b8152600401808363ffffffff16815260200182815260200192505050600060405180830381600087803b15801561121057600080fd5b505af1158015611224573d6000803e3d6000fd5b505050508080600101915050611169565b506000600860009054906101000a900473ffffffffffffffffffffffffffffffffffffffff1673ffffffffffffffffffffffffffffffffffffffff166370a08231306040518263ffffffff1660e01b8152600401808273ffffffffffffffffffffffffffffffffffffffff16815260200191505060206040518083038186803b1580156112c157600080fd5b505afa1580156112d5573d6000803e3d6000fd5b505050506040513d60208110156112eb57600080fd5b8101908080519060200190929190505050905061134b8282600860009054906101000a900473ffffffffffffffffffffffffffffffffffffffff1673ffffffffffffffffffffffffffffffffffffffff166123f69092919063ffffffff16565b8173ffffffffffffffffffffffffffffffffffffffff166382ab890a826040518263ffffffff1660e01b815260040180828152602001915050600060405180830381600087803b15801561139e57600080fd5b505af11580156113b2573d6000803e3d6000fd5b50505050505050565b60055481565b60075481565b600f81815481106113d457fe5b9060005260206000209060089182820401919006600402915054906101000a900463ffffffff1681565b6011818154811061140b57fe5b9060005260206000209060089182820401919006600402915054906101000a900463ffffffff1681565b6000600860009054906101000a900473ffffffffffffffffffffffffffffffffffffffff1673ffffffffffffffffffffffffffffffffffffffff16635aa6e6756040518163ffffffff1660e01b815260040160206040518083038186803b15801561149f57600080fd5b505afa1580156114b3573d6000803e3d6000fd5b505050506040513d60208110156114c957600080fd5b81019080805190602001909291905050509050600073ffffffffffffffffffffffffffffffffffffffff168173ffffffffffffffffffffffffffffffffffffffff161415611562576040517f08c379a000000000000000000000000000000000000000000000000000000000815260040180806020018281038252602c815260200180613feb602c913960400191505060405180910390fd5b8073ffffffffffffffffffffffffffffffffffffffff163373ffffffffffffffffffffffffffffffffffffffff16146115e6576040517f08c379a000000000000000000000000000000000000000000000000000000000815260040180806020018281038252603d815260200180613f87603d913960400191505060405180910390fd5b600c60009054906101000a900473ffffffffffffffffffffffffffffffffffffffff1673ffffffffffffffffffffffffffffffffffffffff168373ffffffffffffffffffffffffffffffffffffffff1614156116ad576116556301e133806005546120b390919063ffffffff16565b42116116ac576040517f08c379a000000000000000000000000000000000000000000000000000000000815260040180806020018281038252603e815260200180613ef9603e913960400191505060405180910390fd5b5b611779828473ffffffffffffffffffffffffffffffffffffffff166370a08231306040518263ffffffff1660e01b8152600401808273ffffffffffffffffffffffffffffffffffffffff16815260200191505060206040518083038186803b15801561171857600080fd5b505afa15801561172c573d6000803e3d6000fd5b505050506040513d602081101561174257600080fd5b81019080805190602001909291905050508573ffffffffffffffffffffffffffffffffffffffff166123f69092919063ffffffff16565b505050565b600260009054906101000a900473ffffffffffffffffffffffffffffffffffffffff1681565b60126020528060005260406000206000915090505481565b601081815481106117c957fe5b9060005260206000209060089182820401919006600402915054906101000a900463ffffffff1681565b600d60149054906101000a900460ff16611858576040517f08c379a000000000000000000000000000000000000000000000000000000000815260040180806020018281038252602981526020018061404b6029913960400191505060405180910390fd5b6000601260003373ffffffffffffffffffffffffffffffffffffffff1673ffffffffffffffffffffffffffffffffffffffff1681526020019081526020016000205414156118f1576040517f08c379a0000000000000000000000000000000000000000000000000000000008152600401808060200182810382526027815260200180613fc46027913960400191505060405180910390fd5b6000611961670de0b6b3a7640000611953600754601260003373ffffffffffffffffffffffffffffffffffffffff1673ffffffffffffffffffffffffffffffffffffffff1681526020019081526020016000205461249890919063ffffffff16565b61251e90919063ffffffff16565b90506000601260003373ffffffffffffffffffffffffffffffffffffffff1673ffffffffffffffffffffffffffffffffffffffff168152602001908152602001600020819055506119b133612568565b6119fe3382600b60009054906101000a900473ffffffffffffffffffffffffffffffffffffffff1673ffffffffffffffffffffffffffffffffffffffff166123f69092919063ffffffff16565b3373ffffffffffffffffffffffffffffffffffffffff167f8dfa607bc8d8fb19580d66f2557e025ad8195a67e954effc4337c1dc3fc485d5826040518082815260200191505060405180910390a250565b60001515611a5b610bf1565b151514611ab3576040517f08c379a0000000000000000000000000000000000000000000000000000000008152600401808060200182810382526022815260200180613e116022913960400191505060405180910390fd5b60001515600d60149054906101000a900460ff16151514611b1f576040517f08c379a000000000000000000000000000000000000000000000000000000000815260040180806020018281038252602b815260200180613e33602b913960400191505060405180910390fd5b60006006541415611b7b576040517f08c379a000000000000000000000000000000000000000000000000000000000815260040180806020018281038252603d815260200180613e8c603d913960400191505060405180910390fd5b6000600c60009054906101000a900473ffffffffffffffffffffffffffffffffffffffff169050611cb281600860009054906101000a900473ffffffffffffffffffffffffffffffffffffffff1673ffffffffffffffffffffffffffffffffffffffff166370a08231306040518263ffffffff1660e01b8152600401808273ffffffffffffffffffffffffffffffffffffffff16815260200191505060206040518083038186803b158015611c2f57600080fd5b505afa158015611c43573d6000803e3d6000fd5b505050506040513d6020811015611c5957600080fd5b8101908080519060200190929190505050600860009054906101000a900473ffffffffffffffffffffffffffffffffffffffff1673ffffffffffffffffffffffffffffffffffffffff166123f69092919063ffffffff16565b611d0181600654600960009054906101000a900473ffffffffffffffffffffffffffffffffffffffff1673ffffffffffffffffffffffffffffffffffffffff166123f69092919063ffffffff16565b8073ffffffffffffffffffffffffffffffffffffffff16636a627842306040518263ffffffff1660e01b8152600401808273ffffffffffffffffffffffffffffffffffffffff168152602001915050602060405180830381600087803b158015611d6a57600080fd5b505af1158015611d7e573d6000803e3d6000fd5b505050506040513d6020811015611d9457600080fd5b81019080805190602001909291905050505060008173ffffffffffffffffffffffffffffffffffffffff166370a08231306040518263ffffffff1660e01b8152600401808273ffffffffffffffffffffffffffffffffffffffff16815260200191505060206040518083038186803b158015611e0f57600080fd5b505afa158015611e23573d6000803e3d6000fd5b505050506040513d6020811015611e3957600080fd5b81019080805190602001909291905050501415611ea1576040517f08c379a000000000000000000000000000000000000000000000000000000000815260040180806020018281038252602f815260200180613f37602f913960400191505060405180910390fd5b611f72600654611f64670de0b6b3a7640000600b60009054906101000a900473ffffffffffffffffffffffffffffffffffffffff1673ffffffffffffffffffffffffffffffffffffffff166318160ddd6040518163ffffffff1660e01b815260040160206040518083038186803b158015611f1b57600080fd5b505afa158015611f2f573d6000803e3d6000fd5b505050506040513d6020811015611f4557600080fd5b810190808051906020019092919050505061249890919063ffffffff16565b61251e90919063ffffffff16565b600781905550611f806125d2565b611f88612a6f565b6001600d60146101000a81548160ff02191690831515021790555050565b600063bc197c8160e01b905095945050505050565b600d60149054906101000a900460ff1681565b610e1081565b600860009054906101000a900473ffffffffffffffffffffffffffffffffffffffff1681565b6000612004610bf1565b156120235761202042635fd6ab00612cf490919063ffffffff16565b90505b90565b612031338383612d3e565b612086576040517f08c379a000000000000000000000000000000000000000000000000000000000815260040180806020018281038252602e815260200180613e5e602e913960400191505060405180910390fd5b612090828261234a565b61209a82826123c0565b5050565b600063f23a6e6160e01b905095945050505050565b600080828401905083811015612131576040517f08c379a000000000000000000000000000000000000000000000000000000000815260040180806020018281038252601b8152602001807f536166654d6174683a206164646974696f6e206f766572666c6f77000000000081525060200191505060405180910390fd5b8091505092915050565b6000612145610bf1565b61219a576040517f08c379a0000000000000000000000000000000000000000000000000000000008152600401808060200182810382526030815260200180613ec96030913960400191505060405180910390fd5b600082116121f3576040517f08c379a00000000000000000000000000000000000000000000000000000000081526004018080602001828103825260348152602001806140176034913960400191505060405180910390fd5b612242833084600960009054906101000a900473ffffffffffffffffffffffffffffffffffffffff1673ffffffffffffffffffffffffffffffffffffffff16612f4e909392919063ffffffff16565b61229482601260008673ffffffffffffffffffffffffffffffffffffffff1673ffffffffffffffffffffffffffffffffffffffff168152602001908152602001600020546120b390919063ffffffff16565b601260008573ffffffffffffffffffffffffffffffffffffffff1673ffffffffffffffffffffffffffffffffffffffff168152602001908152602001600020819055506122ec826006546120b390919063ffffffff16565b6006819055508273ffffffffffffffffffffffffffffffffffffffff167f20b711375edba008429d2f91787c68aa13aab7f267c346bf91be1a104d8b7b8b836040518082815260200191505060405180910390a26001905092915050565b600360010154811180156123685750690a968163f0a57b4000008110155b156123bc5781600360000160006101000a81548173ffffffffffffffffffffffffffffffffffffffff021916908373ffffffffffffffffffffffffffffffffffffffff160217905550806003600101819055505b5050565b6123c8613dba565b6123d18261300f565b90506123dc8161338e565b6123e657506123f2565b6123f083826133df565b505b5050565b6124938363a9059cbb60e01b8484604051602401808373ffffffffffffffffffffffffffffffffffffffff16815260200182815260200192505050604051602081830303815290604052907bffffffffffffffffffffffffffffffffffffffffffffffffffffffff19166020820180517bffffffffffffffffffffffffffffffffffffffffffffffffffffffff8381831617835250505050613759565b505050565b6000808314156124ab5760009050612518565b60008284029050828482816124bc57fe5b0414612513576040517f08c379a0000000000000000000000000000000000000000000000000000000008152600401808060200182810382526021815260200180613f666021913960400191505060405180910390fd5b809150505b92915050565b600061256083836040518060400160405280601a81526020017f536166654d6174683a206469766973696f6e206279207a65726f000000000000815250613848565b905092915050565b600360000160009054906101000a900473ffffffffffffffffffffffffffffffffffffffff1673ffffffffffffffffffffffffffffffffffffffff168173ffffffffffffffffffffffffffffffffffffffff16146125c5576125cf565b6125ce8161390e565b5b50565b6000600860009054906101000a900473ffffffffffffffffffffffffffffffffffffffff1673ffffffffffffffffffffffffffffffffffffffff16636052970c6040518163ffffffff1660e01b815260040160206040518083038186803b15801561263c57600080fd5b505afa158015612650573d6000803e3d6000fd5b505050506040513d602081101561266657600080fd5b810190808051906020019092919050505073ffffffffffffffffffffffffffffffffffffffff1663063b47f86040518163ffffffff1660e01b815260040160206040518083038186803b1580156126bc57600080fd5b505afa1580156126d0573d6000803e3d6000fd5b505050506040513d60208110156126e657600080fd5b81019080805190602001909291905050509050600a60009054906101000a900473ffffffffffffffffffffffffffffffffffffffff1673ffffffffffffffffffffffffffffffffffffffff1663a22cb4658260016040518363ffffffff1660e01b8152600401808373ffffffffffffffffffffffffffffffffffffffff168152602001821515815260200192505050600060405180830381600087803b15801561278f57600080fd5b505af11580156127a3573d6000803e3d6000fd5b5050505060005b600f805490508160ff1610156128f157600f8160ff16815481106127ca57fe5b90600052602060002090600891828204019190066004029054906101000a900463ffffffff1663ffffffff1660108260ff168154811061280657fe5b90600052602060002090600891828204019190066004029054906101000a900463ffffffff1663ffffffff1614156128e457600e819080600181540180825580915050600190039060005260206000209060089182820401919006600402909160ff16909190916101000a81548163ffffffff021916908363ffffffff160217905550600160108260ff168154811061289b57fe5b90600052602060002090600891828204019190066004028282829054906101000a900463ffffffff160392506101000a81548163ffffffff021916908363ffffffff1602179055505b80806001019150506127aa565b50600073ffffffffffffffffffffffffffffffffffffffff16600360000160009054906101000a900473ffffffffffffffffffffffffffffffffffffffff1673ffffffffffffffffffffffffffffffffffffffff16141561299c57600e600790806001815401808255809150506001900390600052602060002090600891828204019190066004029091909190916101000a81548163ffffffff021916908363ffffffff1602179055505b60005b600e805490508160ff161015612a6b578173ffffffffffffffffffffffffffffffffffffffff1663e2bbb158600e8360ff16815481106129db57fe5b90600052602060002090600891828204019190066004029054906101000a900463ffffffff1660016040518363ffffffff1660e01b8152600401808363ffffffff16815260200182815260200192505050600060405180830381600087803b158015612a4657600080fd5b505af1158015612a5a573d6000803e3d6000fd5b50505050808060010191505061299f565b5050565b60005b6010805490508160ff161015612cf157600060108260ff1681548110612a9457fe5b90600052602060002090600891828204019190066004029054906101000a900463ffffffff1663ffffffff1614612ce457600060108260ff1681548110612ad757fe5b90600052602060002090600891828204019190066004029054906101000a900463ffffffff1663ffffffff169050600060108360ff1681548110612b1757fe5b90600052602060002090600891828204019190066004026101000a81548163ffffffff021916908363ffffffff160217905550600a60009054906101000a900473ffffffffffffffffffffffffffffffffffffffff1673ffffffffffffffffffffffffffffffffffffffff1663f242432a30600d60009054906101000a900473ffffffffffffffffffffffffffffffffffffffff1685856040518060400160405280600381526020017f30783000000000000000000000000000000000000000000000000000000000008152506040518663ffffffff1660e01b8152600401808673ffffffffffffffffffffffffffffffffffffffff1681526020018573ffffffffffffffffffffffffffffffffffffffff1681526020018460ff16815260200183815260200180602001828103825283818151815260200191508051906020019080838360005b83811015612c7a578082015181840152602081019050612c5f565b50505050905090810190601f168015612ca75780820380516001836020036101000a031916815260200191505b509650505050505050600060405180830381600087803b158015612cca57600080fd5b505af1158015612cde573d6000803e3d6000fd5b50505050505b8080600101915050612a72565b50565b6000612d3683836040518060400160405280601e81526020017f536166654d6174683a207375627472616374696f6e206f766572666c6f770000815250613ac9565b905092915050565b6000612d48610bf1565b612d9d576040517f08c379a0000000000000000000000000000000000000000000000000000000008152600401808060200182810382526030815260200180613ec96030913960400191505060405180910390fd5b60008211612df6576040517f08c379a00000000000000000000000000000000000000000000000000000000081526004018080602001828103825260348152602001806140176034913960400191505060405180910390fd5b612e45843084600960009054906101000a900473ffffffffffffffffffffffffffffffffffffffff1673ffffffffffffffffffffffffffffffffffffffff16612f4e909392919063ffffffff16565b612e9782601260008673ffffffffffffffffffffffffffffffffffffffff1673ffffffffffffffffffffffffffffffffffffffff168152602001908152602001600020546120b390919063ffffffff16565b601260008573ffffffffffffffffffffffffffffffffffffffff1673ffffffffffffffffffffffffffffffffffffffff16815260200190815260200160002081905550612eef826006546120b390919063ffffffff16565b6006819055508273ffffffffffffffffffffffffffffffffffffffff167f20b711375edba008429d2f91787c68aa13aab7f267c346bf91be1a104d8b7b8b836040518082815260200191505060405180910390a2600190509392505050565b613009846323b872dd60e01b858585604051602401808473ffffffffffffffffffffffffffffffffffffffff1681526020018373ffffffffffffffffffffffffffffffffffffffff1681526020018281526020019350505050604051602081830303815290604052907bffffffffffffffffffffffffffffffffffffffffffffffffffffffff19166020820180517bffffffffffffffffffffffffffffffffffffffffffffffffffffffff8381831617835250505050613759565b50505050565b613017613dba565b6000613034670de0b6b3a76400008461251e90919063ffffffff16565b905061303e613dba565b600060108054905090505b600081111561338357600060018203905060006010828154811061306957fe5b90600052602060002090600891828204019190066004029054906101000a900463ffffffff1663ffffffff1614156130a15750613383565b5b601181815481106130af57fe5b90600052602060002090600891828204019190066004029054906101000a900463ffffffff1663ffffffff168463ffffffff1610613374576000601082815481106130f657fe5b90600052602060002090600891828204019190066004029054906101000a900463ffffffff1663ffffffff161461336a5760006011828154811061313657fe5b90600052602060002090600891828204019190066004029054906101000a900463ffffffff1663ffffffff168563ffffffff168161317057fe5b0490506010828154811061318057fe5b90600052602060002090600891828204019190066004029054906101000a900463ffffffff1663ffffffff168163ffffffff161161328f5780601083815481106131c657fe5b90600052602060002090600891828204019190066004029054906101000a900463ffffffff1603601083815481106131fa57fe5b90600052602060002090600891828204019190066004026101000a81548163ffffffff021916908363ffffffff1602179055506011828154811061323a57fe5b90600052602060002090600891828204019190066004029054906101000a900463ffffffff168102850394508084836007811061327357fe5b602002019063ffffffff16908163ffffffff1681525050613364565b6010828154811061329c57fe5b90600052602060002090600891828204019190066004029054906101000a900463ffffffff1690506000601083815481106132d357fe5b90600052602060002090600891828204019190066004026101000a81548163ffffffff021916908363ffffffff1602179055506011828154811061331357fe5b90600052602060002090600891828204019190066004029054906101000a900463ffffffff168102850394508084836007811061334c57fe5b602002019063ffffffff16908163ffffffff16815250505b5061336f565b613374565b6130a2565b50808060019003915050613049565b508092505050919050565b600080600090505b60078160ff1610156133d9576000838260ff16600781106133b357fe5b602002015163ffffffff16146133cc57600191506133d9565b8080600101915050613396565b50919050565b6060600767ffffffffffffffff811180156133f957600080fd5b506040519080825280602002602001820160405280156134285781602001602082028036833780820191505090505b5090506060600767ffffffffffffffff8111801561344557600080fd5b506040519080825280602002602001820160405280156134745781602001602082028036833780820191505090505b50905060005b60078160ff1610156134e757838160ff166007811061349557fe5b602002015163ffffffff16838260ff16815181106134af57fe5b6020026020010181815250508060ff16828260ff16815181106134ce57fe5b602002602001018181525050808060010191505061347a565b50600a60009054906101000a900473ffffffffffffffffffffffffffffffffffffffff1673ffffffffffffffffffffffffffffffffffffffff16632eb2c2d6308684866040518060400160405280600381526020017f30783000000000000000000000000000000000000000000000000000000000008152506040518663ffffffff1660e01b8152600401808673ffffffffffffffffffffffffffffffffffffffff1681526020018573ffffffffffffffffffffffffffffffffffffffff168152602001806020018060200180602001848103845287818151815260200191508051906020019060200280838360005b838110156135f25780820151818401526020810190506135d7565b50505050905001848103835286818151815260200191508051906020019060200280838360005b83811015613634578082015181840152602081019050613619565b50505050905001848103825285818151815260200191508051906020019080838360005b83811015613673578082015181840152602081019050613658565b50505050905090810190601f1680156136a05780820380516001836020036101000a031916815260200191505b5098505050505050505050600060405180830381600087803b1580156136c557600080fd5b505af11580156136d9573d6000803e3d6000fd5b505050508373ffffffffffffffffffffffffffffffffffffffff167f88d2062495834ed0f249667bfe95e5015eb83133d5f9d94b0ffe7b60b04918a0846040518082600760200280838360005b83811015613741578082015181840152602081019050613726565b5050505090500191505060405180910390a250505050565b60606137bb826040518060400160405280602081526020017f5361666545524332303a206c6f772d6c6576656c2063616c6c206661696c65648152508573ffffffffffffffffffffffffffffffffffffffff16613b899092919063ffffffff16565b9050600081511115613843578080602001905160208110156137dc57600080fd5b8101908080519060200190929190505050613842576040517f08c379a000000000000000000000000000000000000000000000000000000000815260040180806020018281038252602a815260200180614074602a913960400191505060405180910390fd5b5b505050565b600080831182906138f4576040517f08c379a00000000000000000000000000000000000000000000000000000000081526004018080602001828103825283818151815260200191508051906020019080838360005b838110156138b957808201518184015260208101905061389e565b50505050905090810190601f1680156138e65780820380516001836020036101000a031916815260200191505b509250505060405180910390fd5b50600083858161390057fe5b049050809150509392505050565b600a60009054906101000a900473ffffffffffffffffffffffffffffffffffffffff1673ffffffffffffffffffffffffffffffffffffffff1663f242432a3083600760016040518060400160405280600381526020017f30783000000000000000000000000000000000000000000000000000000000008152506040518663ffffffff1660e01b8152600401808673ffffffffffffffffffffffffffffffffffffffff1681526020018573ffffffffffffffffffffffffffffffffffffffff16815260200184815260200183815260200180602001828103825283818151815260200191508051906020019080838360005b83811015613a1b578082015181840152602081019050613a00565b50505050905090810190601f168015613a485780820380516001836020036101000a031916815260200191505b509650505050505050600060405180830381600087803b158015613a6b57600080fd5b505af1158015613a7f573d6000803e3d6000fd5b505050508073ffffffffffffffffffffffffffffffffffffffff167f130fa01e8ff3228da419d323b3afa312b4b83cc86aaea203e11a01ecda57070660405160405180910390a250565b6000838311158290613b76576040517f08c379a00000000000000000000000000000000000000000000000000000000081526004018080602001828103825283818151815260200191508051906020019080838360005b83811015613b3b578082015181840152602081019050613b20565b50505050905090810190601f168015613b685780820380516001836020036101000a031916815260200191505b509250505060405180910390fd5b5060008385039050809150509392505050565b6060613b988484600085613ba1565b90509392505050565b6060613bac85613da7565b613c1e576040517f08c379a000000000000000000000000000000000000000000000000000000000815260040180806020018281038252601d8152602001807f416464726573733a2063616c6c20746f206e6f6e2d636f6e747261637400000081525060200191505060405180910390fd5b600060608673ffffffffffffffffffffffffffffffffffffffff1685876040518082805190602001908083835b60208310613c6e5780518252602082019150602081019050602083039250613c4b565b6001836020036101000a03801982511681845116808217855250505050505090500191505060006040518083038185875af1925050503d8060008114613cd0576040519150601f19603f3d011682016040523d82523d6000602084013e613cd5565b606091505b50915091508115613cea578092505050613d9f565b600081511115613cfd5780518082602001fd5b836040517f08c379a00000000000000000000000000000000000000000000000000000000081526004018080602001828103825283818151815260200191508051906020019080838360005b83811015613d64578082015181840152602081019050613d49565b50505050905090810190601f168015613d915780820380516001836020036101000a031916815260200191505b509250505060405180910390fd5b949350505050565b600080823b905060008111915050919050565b6040518060e0016040528060079060208202803683378082019150509050509056fe4c6f636b65644c69717569646974794576656e743a20547265617375727920686173206e6f74204e465473207374616b696e672e4c6f636b65644c69717569646974794576656e743a204c4c45206f6e676f696e672e4c6f636b65644c69717569646974794576656e743a204c4c4520616c72656164792066696e69736865642e4c6f636b65644c69717569646974794576656e743a204661696c656420746f20616464206c69717569646974792e4c6f636b65644c69717569646974794576656e743a20436f6e747269627574696f6e206d7573742062652067726561746572207468616e207a65726f2e4c6f636b65644c69717569646974794576656e743a204c697175696469747920506f6f6c204576656e74206f7665722e4c6f636b65644c69717569646974794576656e743a2043616e206f6e6c7920636c61696d204c5020746f6b656e73206166746572206f6e6520796561722e4c6f636b65644c69717569646974794576656e743a204661696c656420746f206d696e74204c5020746f6b656e732e536166654d6174683a206d756c7469706c69636174696f6e206f766572666c6f774c6f636b65644c69717569646974794576656e743a204f6e6c7920676f7665726e616e63652063616e2063616c6c20746869732066756e6374696f6e2e4c6f636b65644c69717569646974794576656e743a204e6f7468696e6720746f20636c61696d2e4c6f636b65644c69717569646974794576656e743a20476f7665726e616e6365206973206e6f74207365742e4c6f636b65644c69717569646974794576656e743a204d757374206164642076616c75652067726561746572207468616e20302e4c6f636b65644c69717569646974794576656e743a204576656e74206e6f74206f766572207965742e5361666545524332303a204552433230206f7065726174696f6e20646964206e6f742073756363656564a26469706673582212208992409d5d336669bd78e8cf550206504355ade240007a311fe6d98045d3d59c64736f6c634300060c003360806040523480156200001157600080fd5b506040516200166638038062001666833981810160405260408110156200003757600080fd5b81019080805160405193929190846401000000008211156200005857600080fd5b838201915060208201858111156200006f57600080fd5b82518660018202830111640100000000821117156200008d57600080fd5b8083526020830192505050908051906020019080838360005b83811015620000c3578082015181840152602081019050620000a6565b50505050905090810190601f168015620000f15780820380516001836020036101000a031916815260200191505b50604052602001805160405193929190846401000000008211156200011557600080fd5b838201915060208201858111156200012c57600080fd5b82518660018202830111640100000000821117156200014a57600080fd5b8083526020830192505050908051906020019080838360005b838110156200018057808201518184015260208101905062000163565b50505050905090810190601f168015620001ae5780820380516001836020036101000a031916815260200191505b5060405250505081818160039080519060200190620001cf92919062000496565b508060049080519060200190620001e892919062000496565b506012600560006101000a81548160ff021916908360ff16021790555050506200022233683635c9adc5dea000006200022a60201b60201c565b50506200053c565b600073ffffffffffffffffffffffffffffffffffffffff168273ffffffffffffffffffffffffffffffffffffffff161415620002ce576040517f08c379a000000000000000000000000000000000000000000000000000000000815260040180806020018281038252601f8152602001807f45524332303a206d696e7420746f20746865207a65726f20616464726573730081525060200191505060405180910390fd5b620002e2600083836200040860201b60201c565b620002fe816002546200040d60201b620009d61790919060201c565b6002819055506200035c816000808573ffffffffffffffffffffffffffffffffffffffff1673ffffffffffffffffffffffffffffffffffffffff168152602001908152602001600020546200040d60201b620009d61790919060201c565b6000808473ffffffffffffffffffffffffffffffffffffffff1673ffffffffffffffffffffffffffffffffffffffff168152602001908152602001600020819055508173ffffffffffffffffffffffffffffffffffffffff16600073ffffffffffffffffffffffffffffffffffffffff167fddf252ad1be2c89b69c2b068fc378daa952ba7f163c4a11628f55a4df523b3ef836040518082815260200191505060405180910390a35050565b505050565b6000808284019050838110156200048c576040517f08c379a000000000000000000000000000000000000000000000000000000000815260040180806020018281038252601b8152602001807f536166654d6174683a206164646974696f6e206f766572666c6f77000000000081525060200191505060405180910390fd5b8091505092915050565b828054600181600116156101000203166002900490600052602060002090601f016020900481019282601f10620004d957805160ff19168380011785556200050a565b828001600101855582156200050a579182015b8281111562000509578251825591602001919060010190620004ec565b5b5090506200051991906200051d565b5090565b5b80821115620005385760008160009055506001016200051e565b5090565b61111a806200054c6000396000f3fe608060405234801561001057600080fd5b50600436106100b45760003560e01c80633950935111610071578063395093511461028157806370a08231146102e557806395d89b411461033d578063a457c2d7146103c0578063a9059cbb14610424578063dd62ed3e14610488576100b4565b806306fdde03146100b9578063095ea7b31461013c57806318160ddd146101a057806323b872dd146101be578063313ce5671461024257806332cb6b0c14610263575b600080fd5b6100c1610500565b6040518080602001828103825283818151815260200191508051906020019080838360005b838110156101015780820151818401526020810190506100e6565b50505050905090810190601f16801561012e5780820380516001836020036101000a031916815260200191505b509250505060405180910390f35b6101886004803603604081101561015257600080fd5b81019080803573ffffffffffffffffffffffffffffffffffffffff169060200190929190803590602001909291905050506105a2565b60405180821515815260200191505060405180910390f35b6101a86105c0565b6040518082815260200191505060405180910390f35b61022a600480360360608110156101d457600080fd5b81019080803573ffffffffffffffffffffffffffffffffffffffff169060200190929190803573ffffffffffffffffffffffffffffffffffffffff169060200190929190803590602001909291905050506105ca565b60405180821515815260200191505060405180910390f35b61024a6106a3565b604051808260ff16815260200191505060405180910390f35b61026b6106ba565b6040518082815260200191505060405180910390f35b6102cd6004803603604081101561029757600080fd5b81019080803573ffffffffffffffffffffffffffffffffffffffff169060200190929190803590602001909291905050506106c7565b60405180821515815260200191505060405180910390f35b610327600480360360208110156102fb57600080fd5b81019080803573ffffffffffffffffffffffffffffffffffffffff16906020019092919050505061077a565b6040518082815260200191505060405180910390f35b6103456107c2565b6040518080602001828103825283818151815260200191508051906020019080838360005b8381101561038557808201518184015260208101905061036a565b50505050905090810190601f1680156103b25780820380516001836020036101000a031916815260200191505b509250505060405180910390f35b61040c600480360360408110156103d657600080fd5b81019080803573ffffffffffffffffffffffffffffffffffffffff16906020019092919080359060200190929190505050610864565b60405180821515815260200191505060405180910390f35b6104706004803603604081101561043a57600080fd5b81019080803573ffffffffffffffffffffffffffffffffffffffff16906020019092919080359060200190929190505050610931565b60405180821515815260200191505060405180910390f35b6104ea6004803603604081101561049e57600080fd5b81019080803573ffffffffffffffffffffffffffffffffffffffff169060200190929190803573ffffffffffffffffffffffffffffffffffffffff16906020019092919050505061094f565b6040518082815260200191505060405180910390f35b606060038054600181600116156101000203166002900480601f0160208091040260200160405190810160405280929190818152602001828054600181600116156101000203166002900480156105985780601f1061056d57610100808354040283529160200191610598565b820191906000526020600020905b81548152906001019060200180831161057b57829003601f168201915b5050505050905090565b60006105b66105af610a5e565b8484610a66565b6001905092915050565b6000600254905090565b60006105d7848484610c5d565b610698846105e3610a5e565b6106938560405180606001604052806028815260200161104f60289139600160008b73ffffffffffffffffffffffffffffffffffffffff1673ffffffffffffffffffffffffffffffffffffffff1681526020019081526020016000206000610649610a5e565b73ffffffffffffffffffffffffffffffffffffffff1673ffffffffffffffffffffffffffffffffffffffff16815260200190815260200160002054610f1e9092919063ffffffff16565b610a66565b600190509392505050565b6000600560009054906101000a900460ff16905090565b683635c9adc5dea0000081565b60006107706106d4610a5e565b8461076b85600160006106e5610a5e565b73ffffffffffffffffffffffffffffffffffffffff1673ffffffffffffffffffffffffffffffffffffffff16815260200190815260200160002060008973ffffffffffffffffffffffffffffffffffffffff1673ffffffffffffffffffffffffffffffffffffffff168152602001908152602001600020546109d690919063ffffffff16565b610a66565b6001905092915050565b60008060008373ffffffffffffffffffffffffffffffffffffffff1673ffffffffffffffffffffffffffffffffffffffff168152602001908152602001600020549050919050565b606060048054600181600116156101000203166002900480601f01602080910402602001604051908101604052809291908181526020018280546001816001161561010002031660029004801561085a5780601f1061082f5761010080835404028352916020019161085a565b820191906000526020600020905b81548152906001019060200180831161083d57829003601f168201915b5050505050905090565b6000610927610871610a5e565b84610922856040518060600160405280602581526020016110c0602591396001600061089b610a5e565b73ffffffffffffffffffffffffffffffffffffffff1673ffffffffffffffffffffffffffffffffffffffff16815260200190815260200160002060008a73ffffffffffffffffffffffffffffffffffffffff1673ffffffffffffffffffffffffffffffffffffffff16815260200190815260200160002054610f1e9092919063ffffffff16565b610a66565b6001905092915050565b600061094561093e610a5e565b8484610c5d565b6001905092915050565b6000600160008473ffffffffffffffffffffffffffffffffffffffff1673ffffffffffffffffffffffffffffffffffffffff16815260200190815260200160002060008373ffffffffffffffffffffffffffffffffffffffff1673ffffffffffffffffffffffffffffffffffffffff16815260200190815260200160002054905092915050565b600080828401905083811015610a54576040517f08c379a000000000000000000000000000000000000000000000000000000000815260040180806020018281038252601b8152602001807f536166654d6174683a206164646974696f6e206f766572666c6f77000000000081525060200191505060405180910390fd5b8091505092915050565b600033905090565b600073ffffffffffffffffffffffffffffffffffffffff168373ffffffffffffffffffffffffffffffffffffffff161415610aec576040517f08c379a000000000000000000000000000000000000000000000000000000000815260040180806020018281038252602481526020018061109c6024913960400191505060405180910390fd5b600073ffffffffffffffffffffffffffffffffffffffff168273ffffffffffffffffffffffffffffffffffffffff161415610b72576040517f08c379a00000000000000000000000000000000000000000000000000000000081526004018080602001828103825260228152602001806110076022913960400191505060405180910390fd5b80600160008573ffffffffffffffffffffffffffffffffffffffff1673ffffffffffffffffffffffffffffffffffffffff16815260200190815260200160002060008473ffffffffffffffffffffffffffffffffffffffff1673ffffffffffffffffffffffffffffffffffffffff168152602001908152602001600020819055508173ffffffffffffffffffffffffffffffffffffffff168373ffffffffffffffffffffffffffffffffffffffff167f8c5be1e5ebec7d5bd14f71427d1e84f3dd0314c0f7b2291e5b200ac8c7c3b925836040518082815260200191505060405180910390a3505050565b600073ffffffffffffffffffffffffffffffffffffffff168373ffffffffffffffffffffffffffffffffffffffff161415610ce3576040517f08c379a00000000000000000000000000000000000000000000000000000000081526004018080602001828103825260258152602001806110776025913960400191505060405180910390fd5b600073ffffffffffffffffffffffffffffffffffffffff168273ffffffffffffffffffffffffffffffffffffffff161415610d69576040517f08c379a0000000000000000000000000000000000000000000000000000000008152600401808060200182810382526023815260200180610fe46023913960400191505060405180910390fd5b610d74838383610fde565b610ddf81604051806060016040528060268152602001611029602691396000808773ffffffffffffffffffffffffffffffffffffffff1673ffffffffffffffffffffffffffffffffffffffff16815260200190815260200160002054610f1e9092919063ffffffff16565b6000808573ffffffffffffffffffffffffffffffffffffffff1673ffffffffffffffffffffffffffffffffffffffff16815260200190815260200160002081905550610e72816000808573ffffffffffffffffffffffffffffffffffffffff1673ffffffffffffffffffffffffffffffffffffffff168152602001908152602001600020546109d690919063ffffffff16565b6000808473ffffffffffffffffffffffffffffffffffffffff1673ffffffffffffffffffffffffffffffffffffffff168152602001908152602001600020819055508173ffffffffffffffffffffffffffffffffffffffff168373ffffffffffffffffffffffffffffffffffffffff167fddf252ad1be2c89b69c2b068fc378daa952ba7f163c4a11628f55a4df523b3ef836040518082815260200191505060405180910390a3505050565b6000838311158290610fcb576040517f08c379a00000000000000000000000000000000000000000000000000000000081526004018080602001828103825283818151815260200191508051906020019080838360005b83811015610f90578082015181840152602081019050610f75565b50505050905090810190601f168015610fbd5780820380516001836020036101000a031916815260200191505b509250505060405180910390fd5b5060008385039050809150509392505050565b50505056fe45524332303a207472616e7366657220746f20746865207a65726f206164647265737345524332303a20617070726f766520746f20746865207a65726f206164647265737345524332303a207472616e7366657220616d6f756e7420657863656564732062616c616e636545524332303a207472616e7366657220616d6f756e74206578636565647320616c6c6f77616e636545524332303a207472616e736665722066726f6d20746865207a65726f206164647265737345524332303a20617070726f76652066726f6d20746865207a65726f206164647265737345524332303a2064656372656173656420616c6c6f77616e63652062656c6f77207a65726fa264697066735822122051473e82e17b14c5c7a6257bcf76b3e823f2e1e8a6dac013d3ef83f26e47b4cf64736f6c634300060c00334c6971756964697479506f6f6c3a20706f6f6c20616c72656164792063726561746564",
  "linkReferences": {},
  "deployedLinkReferences": {}
}